:020000040000FA
:040000000DEF00F010
:020004000000FA
:08000800F2A009EF00F04BEF3C
:1000100007F0F2A410005FEF07F00F01006A300E46
:10002000116E020E1C6E2C6AEF0E1F6E1D6A1E6A88
:10003000206A216A226A000E1D6EAB0E296E090E1F
:100040002E6E130E2D6ED388D39AD38CD3A426EFA5
:1000500000F09280388192983899929A389B929CBD
:10006000389D929E389F936A938A399B93883999D9
:10007000948C3A9D948E3A9F948694883A973A99B4
:100080008288956A3B938C6A0C0EAF6EB06AAC8422
:10009000B896AC98AB8EB898AC8AB89AAB88F28C0C
:1000A000050EC26E000EC16E2E0EC06EC282FF0E15
:1000B000BB6E7A0EBA6E000E496F2C0E576F579BAF
:1000C00057994C0E586FBA84010ED56EF29EF2907D
:1000D000F286F294F28A629A090EC86EC76AC78ED7
:1000E000C78CC690C692C694C686C68A9E960001E4
:1000F000BBEC02F0D59EBA941EEF0BF0E00E126E30
:10010000136E122E85EF00F01200132E85EF00F013
:1001100081EF00F0080E126E700E136E122E92EF29
:1001200000F01200132E92EF00F08EEF00F0030E9D
:10013000126E600E136E122E9FEF00F01200132E3F
:100140009FEF00F09BEF00F0020E126E120E136E86
:10015000122EACEF00F01200132EACEF00F0A8EF5F
:1001600000F0E00E126E136E122EB8EF00F01200C7
:10017000132EB8EF00F0B4EF00F01200006AAE6A80
:100180009E9A096A12009EAAC3EF00F0AECF00F05B
:100190001200C3EC00F0AE6A9E9A00C0E8FF0D0AA0
:1001A000D8B41200092A09C0E8FF010AD8B400C077
:1001B00008F0030AD8B400C007F0010AD8B400C0A0
:1001C00006F0070AD8B400C005F0010AD8B400C090
:1001D00004F0030AD8B400C003F0010AD8B400C088
:1001E00002F00F0AD8B400C001F0C9EC00F0AD6E07
:1001F000ACA2F8EF00F0120078EC01F04D0EF7EC35
:1002000000F0650EF7EC00F06E0EF7EC00F0750EE6
:10021000F7EC00F078EC01F081EC01F0310EF7EC36
:1002200000F0290EF7EC00F0200EF7EC00F0430E82
:10023000F7EC00F0610EF7EC00F06C0EF7EC00F05C
:10024000690EF7EC00F0620EF7EC00F0720EF7ECBE
:1002500000F0610EF7EC00F0740EF7EC00F0690EA0
:10026000F7EC00F06F0EF7EC00F06E0EF7EC00F01C
:1002700081EC01F0320EF7EC00F0290EF7EC00F003
:10028000200EF7EC00F0530EF7EC00F0740EF7ECD4
:1002900000F0610EF7EC00F0720EF7EC00F0740E57
:1002A000F7EC00F081EC01F0330EF7EC00F0290ED2
:1002B000F7EC00F0200EF7EC00F04C0EF7EC00F03D
:1002C000430EF7EC00F0440EF7EC00F0200EF7ECD4
:1002D00000F0540EF7EC00F0650EF7EC00F0730E32
:1002E000F7EC00F0740EF7EC00F081EC01F0120076
:1002F000100E266E264E12002D0EF7EC00F07AEF4F
:1003000001F00D0EF7EC00F00A0EF7EC00F0120011
:10031000096A400E096EC282C2B28CEF01F0C3CFEF
:100320000AF0C4CF0BF0FF0E0C140D6ED8900D32F6
:10033000D8900D300C5ED8900B32D8900B300C2634
:10034000D890092E8BEF01F00CC058FF1200096AFB
:10035000400E096EC282C2B2ABEF01F0C3CF0BF008
:10036000FF0E0C140D6ED8900D32D8900D300C5E2F
:10037000D8900B32D8900B300C26D890092EAAEFCB
:1003800001F01200310E0CAE300EF7EC00F0310E21
:100390000CAC300EF7EC00F0310E0CAA300EF7EC7E
:1003A00000F0310E0CA8300EF7EC00F0310E0CA668
:1003B000300EF7EC00F0310E0CA4300EF7EC00F02C
:1003C000310E0CA2300EF7EC00F0310E0CA0300E06
:1003D000F7EC00F00D0EF7EC00F00A0EF7EC00F071
:1003E000120088EC01F00CC0E8FF46EC07F023C0D7
:1003F000E8FFF7EC00F021C0E8FFF7EC00F022C0C6
:10040000E8FFF7EC00F081EC01F00CC0E8FF020F10
:10041000286EB1EC00F088EC01F00CC0E8FF46EC6F
:1004200007F023C0E8FFF7EC00F021C0E8FFF7EC8D
:1004300000F022C0E8FFF7EC00F081EC01F00CC006
:10044000E8FF28608098286480881200F29EC580AA
:100450006FEC02F0A00EC96E6FEC02F0C5BC26EF87
:1004600002F01AC0C9FF6FEC02F0C5BC73EF02F0D6
:100470002FC0C9FF6FEC02F0C5BC73EF02F0C5845A
:100480006FEC02F0F28E1200F29EC5806FEC02F06B
:10049000A00EC96E6FEC02F0C5BC44EF02F01AC0AA
:1004A000C9FF6FEC02F0C5BC73EF02F0C5826FECC0
:1004B00002F0A10EC96E6FEC02F0C5BC44EF02F071
:1004C000C5866FEC02F0806AC9CF2FF0C58AC58857
:1004D0006FEC02F0C5846FEC02F0F28E12009EA663
:1004E000FED79E961200C5841EEF0BF01200F29EFE
:1004F000C5806FEC02F04E0EC96E6FEC02F0C5BC09
:1005000077EF02F017C0C9FF6FEC02F0C5BC73EFC4
:1005100002F0C5846FEC02F0F28EE868E82EFED798
:100520001200186E196EF00E18160D0E1812193AE8
:10053000F00E19160D0E1912A4EC00F0490E176EEC
:1005400077EC02F018C017F077EC02F0490E176E46
:1005500077EC02F0A4EC00F0890E176E77EC02F055
:1005600019C017F077EC02F0890E176E77EC02F0E5
:10057000A4EC00F012007EEC00F07EEC00F07EECCB
:1005800000F0300E176E77EC02F0340E176E77EC39
:1005900002F0300E176E77EC02F08AEC00F0300EAD
:1005A000176E77EC02F0340E176E77EC02F0300E17
:1005B000176E77EC02F08AEC00F0300E176E77ECD5
:1005C00002F0340E176E77EC02F0300E176E77ECF7
:1005D00002F097EC00F0200E176E77EC02F0240E7C
:1005E000176E77EC02F0200E176E77EC02F0A4EC99
:1005F00000F0200E176E77EC02F0240E176E77ECE9
:1006000002F0200E176E77EC02F0A4EC00F0800EE2
:10061000176E77EC02F0840E176E77EC02F0800E06
:10062000176E77EC02F0A4EC00F0000E176E77EC7A
:1006300002F0040E176E77EC02F0000E176E77ECE6
:1006400002F0A4EC00F0C00E176E77EC02F0C40EBE
:10065000176E77EC02F0C00E176E77EC02F0A4EC88
:1006600000F0000E176E77EC02F0040E176E77ECB8
:1006700002F0000E176E77EC02F0A4EC00F0100E02
:10068000176E77EC02F0140E176E77EC02F0100E76
:10069000176E77EC02F0A4EC00F08BEC03F00AECA0
:1006A00004F0490E91EC02F07EEC00F06E0E91EC3D
:1006B00002F07EEC00F0690E91EC02F07EEC00F0AE
:1006C000740E91EC02F07EEC00F0690E91EC02F0F9
:1006D0007EEC00F0610E91EC02F07EEC00F06C0E0E
:1006E00091EC02F07EEC00F0690E91EC02F07EECF1
:1006F00000F07A0E91EC02F07EEC00F0650E91ECC9
:1007000002F07EEC00F0640E91EC02F07EEC00F062
:100710008BEC03F01200A4EC00F0080E176E77ECDF
:1007200002F00C0E176E77EC02F0080E176E77ECE5
:1007300002F0A4EC00F0180E176E77EC02F01C0E1D
:10074000176E77EC02F0180E176E77EC02F0A4EC3F
:1007500000F01200A4EC00F0080E176E77EC02F027
:100760000C0E176E77EC02F0080E176E77EC02F0A5
:10077000A4EC00F0E80E176E77EC02F0EC0E176EAA
:1007800077EC02F0E80E176E77EC02F0A4EC00F0C4
:100790001200A4EC00F0080E176E77EC02F00C0EBD
:1007A000176E77EC02F0080E176E77EC02F0A4ECEF
:1007B00000F0C80E176E77EC02F0CC0E176E77ECD7
:1007C00002F0C80E176E77EC02F0A4EC00F01200F5
:1007D000A4EC00F0880E176E77EC02F08C0E176E0A
:1007E00077EC02F0880E176E77EC02F0A4EC00F0C4
:1007F0001200A4EC00F0C80E176E77EC02F0CC0EDD
:10080000176E77EC02F0C80E176E77EC02F0A4ECCE
:1008100000F01200E8EC03F0080E176E77EC02F01F
:100820000C0E176E77EC02F0080E176E77EC02F0E4
:10083000A4EC00F01200E8EC03F0180E176E77EC51
:1008400002F01C0E176E77EC02F0180E176E77ECA4
:1008500002F0A4EC00F01200E8EC03F0280E176E92
:1008600077EC02F02C0E176E77EC02F0280E176E64
:1008700077EC02F0A4EC00F01200E8EC03F0380E84
:10088000176E77EC02F03C0E176E77EC02F0380E24
:10089000176E77EC02F0A4EC00F01200E8EC03F025
:1008A000480E176E77EC02F04C0E176E77EC02F0E4
:1008B000480E176E77EC02F0A4EC00F01200E8ECA2
:1008C00003F0580E176E77EC02F05C0E176E77ECA3
:1008D00002F0580E176E77EC02F0A4EC00F0120054
:1008E000E8EC03F0680E176E77EC02F06C0E176EF2
:1008F00077EC02F0680E176E77EC02F0A4EC00F0D3
:100900001200E8EC03F0780E176E77EC02F07C0E24
:10091000176E77EC02F0780E176E77EC02F0A4EC0D
:1009200000F01200E8EC03F0880E176E77EC02F08E
:100930008C0E176E77EC02F0880E176E77EC02F0D3
:10094000A4EC00F01200E8EC03F0980E176E77ECC0
:1009500002F09C0E176E77EC02F0980E176E77EC93
:1009600002F0A4EC00F01200E8EC03F0A80E176E01
:1009700077EC02F0AC0E176E77EC02F0A80E176E53
:1009800077EC02F0A4EC00F01200E8EC03F0B80EF3
:10099000176E77EC02F0BC0E176E77EC02F0B80E13
:1009A000176E77EC02F0A4EC00F01200E8EC03F014
:1009B000C80E176E77EC02F0CC0E176E77EC02F0D3
:1009C000C80E176E77EC02F0A4EC00F01200E8EC11
:1009D00003F0D80E176E77EC02F0DC0E176E77EC92
:1009E00002F0D80E176E77EC02F0A4EC00F01200C3
:1009F000E8EC03F0E80E176E77EC02F0EC0E176EE1
:100A000077EC02F0E80E176E77EC02F0A4EC00F041
:100A10001200E8EC03F0F80E176E77EC02F0FC0E13
:100A2000176E77EC02F0F80E176E77EC02F0A4EC7C
:100A300000F01200F9EC03F0080E176E77EC02F0EC
:100A40000C0E176E77EC02F0080E176E77EC02F0C2
:100A5000A4EC00F01200F9EC03F0180E176E77EC1E
:100A600002F01C0E176E77EC02F0180E176E77EC82
:100A700002F0A4EC00F01200F9EC03F0280E176E5F
:100A800077EC02F02C0E176E77EC02F0280E176E42
:100A900077EC02F0A4EC00F01200F9EC03F0380E51
:100AA000176E77EC02F03C0E176E77EC02F0380E02
:100AB000176E77EC02F0A4EC00F01200F9EC03F0F2
:100AC000480E176E77EC02F04C0E176E77EC02F0C2
:100AD000480E176E77EC02F0A4EC00F01200F9EC6F
:100AE00003F0580E176E77EC02F05C0E176E77EC81
:100AF00002F0580E176E77EC02F0A4EC00F0120032
:100B0000F9EC03F0680E176E77EC02F06C0E176EBE
:100B100077EC02F0680E176E77EC02F0A4EC00F0B0
:100B20001200F9EC03F0780E176E77EC02F07C0EF1
:100B3000176E77EC02F0780E176E77EC02F0A4ECEB
:100B400000F01200F9EC03F0880E176E77EC02F05B
:100B50008C0E176E77EC02F0880E176E77EC02F0B1
:100B6000A4EC00F01200F9EC03F0980E176E77EC8D
:100B700002F09C0E176E77EC02F0980E176E77EC71
:100B800002F0A4EC00F01200F9EC03F0A80E176ECE
:100B900077EC02F0AC0E176E77EC02F0A80E176E31
:100BA00077EC02F0A4EC00F01200F9EC03F0B80EC0
:100BB000176E77EC02F0BC0E176E77EC02F0B80EF1
:100BC000176E77EC02F0A4EC00F01200F9EC03F0E1
:100BD000C80E176E77EC02F0CC0E176E77EC02F0B1
:100BE000C80E176E77EC02F0A4EC00F01200F9ECDE
:100BF00003F0D80E176E77EC02F0DC0E176E77EC70
:100C000002F0D80E176E77EC02F0A4EC00F01200A0
:100C1000F9EC03F0E80E176E77EC02F0EC0E176EAD
:100C200077EC02F0E80E176E77EC02F0A4EC00F01F
:100C30001200F9EC03F0F80E176E77EC02F0FC0EE0
:100C4000176E77EC02F0F80E176E77EC02F0A4EC5A
:100C500000F01200050EC26EC9EC00F088EC01F045
:100C60000CC014F0C2EC01F00C6A0AEC04F0490E5E
:100C700091EC02F06E0E91EC02F0C9EC00F088EC01
:100C800001F00CC016F0C2EC01F00C6A0AEC04F0A2
:100C90004F0E91EC02F0750E91EC02F0740E91EC97
:100CA00002F0C9EC00F088EC01F0C2EC01F00CC0DD
:100CB00015F00C6A1200F1EC01F0E7EC04F02CC026
:100CC00027F0D8902732D890273046EC07F021C083
:100CD000E8FF91EC02F022C0E8FF91EC02F0530E25
:100CE00091EC02F080A8A3EF06F07EEC00F00AEC95
:100CF00004F0490E91EC02F06E0E91EC02F02E0E13
:100D000091EC02F0200E91EC02F0BAEC06F0E7EC68
:100D100004F02CC027F0D8902732D890273046EC2A
:100D200007F021C0E8FF91EC02F022C0E8FF91EC4F
:100D300002F0530E91EC02F0F1EC01F080A8A3EF69
:100D400006F087EF06F07EEC00F00AEC04F04F0EA0
:100D500091EC02F0750E91EC02F0740E91EC02F041
:100D60002E0E91EC02F01CC0E8FF1F625BEF06F054
:100D70006CEF07F0F29EFF0E1E141D6ED8901D3210
:100D8000D8901D301E5ED8901C32D8901C301E2684
:100D9000D8901E24D890F28E000E1C6E8AEC00F0C3
:100DA000CAEC07F01EC0E8FF2E60AAEC07F02D6425
:100DB000BAEC07F01FC000F01EC0E8FF206A202A2E
:100DC000005EFDE22006002600C025F020C024F0D1
:100DD000206A24C0E8FF46EC07F07EEC00F05EECF1
:100DE00005F07EEC00F021C0E8FF91EC02F022C09B
:100DF000E8FF91EC02F025C0E8FF46EC07F080EC3C
:100E000005F02C0E91EC02F021C0E8FF91EC02F00D
:100E100022C0E8FF91EC02F07EEC00F012007EECC4
:100E200000F08098AE0EC06E8088110EC26E7EEC0F
:100E300000F092943895819A938A350EC26EA7EC91
:100E400001F00CC0E8FF11600FEF07F01200006E18
:100E50000A0E206A202A005EFDE20026200600C05D
:100E600022F020C000F0206A202A005EFDE2002669
:100E7000200600C021F020C023F0206A1200300EAE
:100E80002326300E2126300E2226120027EC07F0F2
:100E90003FEC07F01200F29EF290629A0FEC07F01E
:100EA000C2EC01F0938A399B050EC26E000EC16E32
:100EB0002E0EC06EC282F28E808E819C1000F29E39
:100EC0001C2A2C2AF294F28E2CC0E8FF1F6210001C
:100ED000020E1C6E2C6A1000F29AF28E628A818CCD
:100EE00080887EEC00F0808A7EEC00F0808C7EECC6
:100EF00000F0808E7EEC00F00AEC04F0440E91ECE1
:100F000002F0450E91EC02F0410E91EC02F0440E1D
:100F100091EC02F0210E91EC02F05EEC05F07EEC1B
:100F200000F0300E91EC02F0300E91EC02F0300E39
:100F300046EC07F080EC05F02C0E91EC02F0300E40
:100F400091EC02F0300E91EC02F081AC0DEF00F06C
:100F50006CEF07F0809C809EF7EC05F0420E91EC60
:100F600002F0440E91EC02F0210E91EC02F0807A36
:100F7000808C1200809C809EF7EC05F0420E91EC74
:100F800002F0440E91EC02F0210E91EC02F0807A16
:100F9000808E1200F7EC05F0200E91EC02F0200E8E
:100FA00091EC02F0200E91EC02F0809A809C809EE1
:100FB000120081EC04F02E0E91EC02F0000E1A6E7D
:100FC000480E2F6E26EC02F07EEC00F07EEC00F076
:100FD00092EC04F02E0E91EC02F0010E1A6E450E0A
:100FE0002F6E26EC02F07EEC00F07EEC00F0A3EC1D
:100FF00004F02E0E91EC02F0020E1A6E4C0E2F6EC3
:1010000026EC02F07EEC00F07EEC00F0B4EC04F094
:101010002E0E91EC02F0030E1A6E4F0E2F6E26EC80
:1010200002F07EEC00F07EEC00F0C5EC04F02E0E39
:1010300091EC02F0040E1A6E200E2F6E26EC02F0D8
:101040007EEC00F07EEC00F0D6EC04F02E0E91EC7D
:1010500002F0050E1A6E570E2F6E26EC02F07EEC93
:1010600000F07EEC00F0E7EC04F02E0E91EC02F0C4
:10107000060E1A6E520E2F6E26EC02F07EEC00F079
:101080007EEC00F0F8EC04F02E0E91EC02F0070E6E
:101090001A6E440E2F6E26EC02F07EEC00F07EEC11
:1010A00000F009EC05F02E0E91EC02F0080E1A6E1D
:1010B000210E2F6E26EC02F07EEC00F07EEC00F0AC
:1010C000F9EC09F091EC05F02E0E91EC02F0000E17
:1010D0001A6E44EC02F02FC030F0A2EC05F02E0E98
:1010E00091EC02F0010E1A6E44EC02F02FC031F0C8
:1010F000B3EC05F02E0E91EC02F0020E1A6E44ECE9
:1011000002F02FC032F0C4EC05F02E0E91EC02F08C
:10111000030E1A6E44EC02F02FC033F0D5EC05F04C
:101120002E0E91EC02F0040E1A6E44EC02F02FC069
:1011300034F0E6EC05F02E0E91EC02F0050E1A6E7E
:1011400044EC02F02FC035F0F7EC05F02E0E91ECD8
:1011500002F0060E1A6E44EC02F02FC036F008ECD6
:1011600006F02E0E91EC02F0070E1A6E44EC02F01F
:101170002FC037F019EC06F02E0E91EC02F0080E9D
:101180001A6E44EC02F02FC038F012008BEC03F022
:101190000AEC04F030C0E8FFF7EC00F030C0E8FFE4
:1011A00091EC02F031C0E8FFF7EC00F031C0E8FF4D
:1011B00091EC02F032C0E8FFF7EC00F032C0E8FF3B
:1011C00091EC02F032C0E8FFF7EC00F032C0E8FF2B
:1011D00091EC02F033C0E8FFF7EC00F033C0E8FF19
:1011E00091EC02F034C0E8FFF7EC00F034C0E8FF07
:1011F00091EC02F035C0E8FFF7EC00F035C0E8FFF5
:1012000091EC02F033C0E8FFF7EC00F033C0E8FFE8
:1012100091EC02F036C0E8FFF7EC00F036C0E8FFD2
:1012200091EC02F032C0E8FFF7EC00F032C0E8FFCA
:1012300091EC02F037C0E8FFF7EC00F037C0E8FFB0
:1012400091EC02F038C0E8FFF7EC00F038C0E8FF9E
:1012500091EC02F081EC01F07EEC00F07EEC00F00D
:101260007EEC00F07EEC00F07EEC00F07EEC00F016
:101270007EEC00F07EEC00F07EEC00F07EEC00F006
:101280007EEC00F07EEC00F07EEC00F07EEC00F0F6
:101290007EEC00F07EEC00F07EEC00F07EEC00F0E6
:1012A00012008BEC03F01AEC05F0420E91EC02F008
:1012B000500E91EC02F04D0E91EC02F03A0E91ECD2
:1012C00002F01200E7EC04F02CC027F0D89027328F
:1012D000D890273046EC07F021C0E8FF91EC02F0EF
:1012E00022C0E8FF91EC02F0530E91EC02F01200E4
:1012F0008BEC03F00AEC04F0500E91EC02F06C0E53
:1013000091EC02F0650E91EC02F0610E91EC02F0AE
:10131000730E91EC02F0650E91EC02F0200E91EC50
:1013200002F0500E91EC02F0720E91EC02F0650E9C
:1013300091EC02F0730E91EC02F0730E91EC02F05E
:10134000200E91EC02F0540E91EC02F0680E91EC3C
:1013500002F0650E91EC02F01AEC05F0530E91ECE0
:1013600002F0770E91EC02F0690E91EC02F0740E2F
:1013700091EC02F0630E91EC02F0680E91EC02F039
:10138000200E91EC02F0540E91EC02F06F0E91ECF5
:1013900002F0200E91EC02F0530E91EC02F0740E6C
:1013A00091EC02F0610E91EC02F0720E91EC02F001
:1013B000740E91EC02F02E0E91EC02F012008BEC08
:1013C00003F00AEC04F0570E91EC02F0520E91EC8F
:1013D00002F0490E91EC02F0540E91EC02F0490E2D
:1013E00091EC02F04E0E91EC02F0470E91EC02F0FF
:1013F00012001AEC05F0520E91EC02F0450E91EC41
:1014000002F0410E91EC02F0440E91EC02F0490E14
:1014100091EC02F04E0E91EC02F0470E91EC02F0CE
:1014200012008BEC03F00AEC04F04E0E91EC02F08B
:101430006F0E91EC02F0770E91EC02F0200E91EC21
:1014400002F0700E91EC02F0720E91EC02F0690E57
:1014500091EC02F06E0E91EC02F0740E91EC02F041
:101460006E0E91EC02F0670E91EC02F0200E91EC02
:1014700002F0640E91EC02F0610E91EC02F0740E39
:1014800091EC02F0610E91EC02F01AEC05F0740E92
:1014900091EC02F06F0E91EC02F0200E91EC02F054
:1014A0004C0E91EC02F0430E91EC02F0440E91ECE4
:1014B00002F0260E91EC02F0740E91EC02F0650E33
:1014C00091EC02F0720E91EC02F06D0E91EC02F0D4
:1014D000690E91EC02F06E0E91EC02F0610E91EC4F
:1014E00002F06C0E91EC02F07EEC00F07EEC00F06D
:1014F0007EEC00F07EEC00F07EEC00F07EEC00F084
:101500007EEC00F07EEC00F07EEC00F07EEC00F073
:101510007EEC00F07EEC00F07EEC00F07EEC00F063
:101520007EEC00F07EEC00F07EEC00F07EEC00F053
:101530007EEC00F07EEC00F07EEC00F07EEC00F043
:101540007EEC00F012000AEC04F0530E91EC02F075
:10155000650E91EC02F0740E91EC02F0200E91EC0D
:1015600002F0730E91EC02F0650E91EC02F06E0E3B
:1015700091EC02F0730E91EC02F06F0E91EC02F020
:10158000720E91EC02F0200E91EC02F0740E91ECD0
:1015900002F06F0E91EC02F0200E91EC02F097EC4D
:1015A00000F01AEC05F0310E91EC02F0320E91ECE5
:1015B00002F0370E91EC02F0200E91EC02F03A0EA0
:1015C00091EC02F0200E91EC02F07EEC00F088EC41
:1015D00001F07EEC00F0C2EC01F00CC0E8FF006E00
:1015E0000A0E206A202A005EFDE20026200600C0C6
:1015F0000AF020C000F0206A202A005EFDE20026EA
:10160000200600C00BF020C0E8FF300F91EC02F084
:10161000206A97EC00F00BC0E8FF300F91EC02F06D
:1016200097EC00F00AC0E8FF300F91EC02F07EEC7E
:1016300000F081A822EF0BF0A3EF0AF08BEC03F08F
:10164000A3EC0AF0DFEC09F0D9EC07F011EC0AF09A
:10165000C6EC08F078EC09F0F28E628A80AE2EEFCC
:101660000BF051EC09F0D58EBA8462EC09F05BEF17
:0216700006F082
:020000040030CA
:0100010028D6
:010003003CC0
:010006008574
:00000001FF
